{
  "_format": "hh-sol-artifact-1",
  "contractName": "KeyPosterFactory",
  "sourceName": "contracts/KeyPosterFactory.sol",
  "abi": [
    {
      "anonymous": false,
      "inputs": [
        {
          "indexed": true,
          "internalType": "address",
          "name": "newKeyPoster",
          "type": "address"
        },
        {
          "indexed": true,
          "internalType": "address",
          "name": "owner",
          "type": "address"
        }
      ],
      "name": "KeyPosterCreated",
      "type": "event"
    },
    {
      "inputs": [],
      "name": "createKeyPoster",
      "outputs": [
        {
          "internalType": "address",
          "name": "",
          "type": "address"
        }
      ],
      "stateMutability": "nonpayable",
      "type": "function"
    }
  ],
  "bytecode": "0x608060405234801561001057600080fd5b50611184806100206000396000f3fe608060405234801561001057600080fd5b506004361061002b5760003560e01c8063c2081b0e14610030575b600080fd5b61003861004e565b6040516100459190610136565b60405180910390f35b6000803360405161005e906100e8565b6100689190610136565b604051809103906000f080158015610084573d6000803e3d6000fd5b5090503373ffffffffffffffffffffffffffffffffffffffff168173ffffffffffffffffffffffffffffffffffffffff167f972e42b4c6f883e96833b0d8c531addb94321bdd53fec98e14026279e75e26a960405160405180910390a38091505090565b610ffd8061015283390190565b600073ffffffffffffffffffffffffffffffffffffffff82169050919050565b6000610120826100f5565b9050919050565b61013081610115565b82525050565b600060208201905061014b6000830184610127565b9291505056fe60806040523480156200001157600080fd5b5060405162000ffd38038062000ffd8339818101604052810190620000379190620001f4565b80600073ffffffffffffffffffffffffffffffffffffffff168173ffffffffffffffffffffffffffffffffffffffff1603620000ad5760006040517f1e4fbdf7000000000000000000000000000000000000000000000000000000008152600401620000a4919062000237565b60405180910390fd5b620000be81620000c660201b60201c565b505062000254565b60008060009054906101000a900473ffffffffffffffffffffffffffffffffffffffff169050816000806101000a81548173ffffffffffffffffffffffffffffffffffffffff021916908373ffffffffffffffffffffffffffffffffffffffff1602179055508173ffffffffffffffffffffffffffffffffffffffff168173ffffffffffffffffffffffffffffffffffffffff167f8be0079c531659141344cd1fd0a4f28419497f9722a3daafe3b4186f6b6457e060405160405180910390a35050565b600080fd5b600073ffffffffffffffffffffffffffffffffffffffff82169050919050565b6000620001bc826200018f565b9050919050565b620001ce81620001af565b8114620001da57600080fd5b50565b600081519050620001ee81620001c3565b92915050565b6000602082840312156200020d576200020c6200018a565b5b60006200021d84828501620001dd565b91505092915050565b6200023181620001af565b82525050565b60006020820190506200024e600083018462000226565b92915050565b610d9980620002646000396000f3fe608060405234801561001057600080fd5b506004361061007d5760003560e01c8063715018a61161005b578063715018a6146100ea5780638da5cb5b146100f4578063bc87eed314610112578063f2fde38b146101305761007d565b806310813e7d146100825780635f7b68be146100b257806369e78499146100ce575b600080fd5b61009c60048036038101906100979190610964565b61014c565b6040516100a991906109ac565b60405180910390f35b6100cc60048036038101906100c79190610964565b6101a2565b005b6100e860048036038101906100e39190610964565b61038b565b005b6100f261064a565b005b6100fc61065e565b60405161010991906109d6565b60405180910390f35b61011a610687565b6040516101279190610aaf565b60405180910390f35b61014a60048036038101906101459190610964565b610715565b005b6000600160008373ffffffffffffffffffffffffffffffffffffffff1673ffffffffffffffffffffffffffffffffffffffff16815260200190815260200160002060009054906101000a900460ff169050919050565b6101aa61079b565b600160008273ffffffffffffffffffffffffffffffffffffffff1673ffffffffffffffffffffffffffffffffffffffff16815260200190815260200160002060009054906101000a900460ff1615610237576040517f08c379a000000000000000000000000000000000000000000000000000000000815260040161022e90610b2e565b60405180910390fd5b61024081610822565b15610280576040517f08c379a000000000000000000000000000000000000000000000000000000000815260040161027790610b9a565b60405180910390fd5b60018060008373ffffffffffffffffffffffffffffffffffffffff1673ffffffffffffffffffffffffffffffffffffffff16815260200190815260200160002060006101000a81548160ff0219169083151502179055506002819080600181540180825580915050600190039060005260206000200160009091909190916101000a81548173ffffffffffffffffffffffffffffffffffffffff021916908373ffffffffffffffffffffffffffffffffffffffff1602179055508073ffffffffffffffffffffffffffffffffffffffff167f7d958a859734aa5212d2568f8700fe77619bc93d5b08abf1445585bac8bff606436040516103809190610bd3565b60405180910390a250565b61039361079b565b600160008273ffffffffffffffffffffffffffffffffffffffff1673ffffffffffffffffffffffffffffffffffffffff16815260200190815260200160002060009054906101000a900460ff1661041f576040517f08c379a000000000000000000000000000000000000000000000000000000000815260040161041690610c3a565b60405180910390fd5b6000600160008373ffffffffffffffffffffffffffffffffffffffff1673ffffffffffffffffffffffffffffffffffffffff16815260200190815260200160002060006101000a81548160ff02191690831515021790555060005b600280549050811015610603578173ffffffffffffffffffffffffffffffffffffffff16600282815481106104b2576104b1610c5a565b5b9060005260206000200160009054906101000a900473ffffffffffffffffffffffffffffffffffffffff1673ffffffffffffffffffffffffffffffffffffffff16036105f0576002600160028054905061050c9190610cb8565b8154811061051d5761051c610c5a565b5b9060005260206000200160009054906101000a900473ffffffffffffffffffffffffffffffffffffffff166002828154811061055c5761055b610c5a565b5b9060005260206000200160006101000a81548173ffffffffffffffffffffffffffffffffffffffff021916908373ffffffffffffffffffffffffffffffffffffffff16021790555060028054806105b6576105b5610cec565b5b6001900381819060005260206000200160006101000a81549073ffffffffffffffffffffffffffffffffffffffff02191690559055610603565b80806105fb90610d1b565b91505061047a565b508073ffffffffffffffffffffffffffffffffffffffff167fd2b2d9609b634ccc6f93482de9f8431ec6222fed4fa3cfca3b2a7e1a96a924ae60405160405180910390a250565b61065261079b565b61065c6000610835565b565b60008060009054906101000a900473ffffffffffffffffffffffffffffffffffffffff16905090565b6060600280548060200260200160405190810160405280929190818152602001828054801561070b57602002820191906000526020600020905b8160009054906101000a900473ffffffffffffffffffffffffffffffffffffffff1673ffffffffffffffffffffffffffffffffffffffff16815260200190600101908083116106c1575b5050505050905090565b61071d61079b565b600073ffffffffffffffffffffffffffffffffffffffff168173ffffffffffffffffffffffffffffffffffffffff160361078f5760006040517f1e4fbdf700000000000000000000000000000000000000000000000000000000815260040161078691906109d6565b60405180910390fd5b61079881610835565b50565b6107a36108f9565b73ffffffffffffffffffffffffffffffffffffffff166107c161065e565b73ffffffffffffffffffffffffffffffffffffffff1614610820576107e46108f9565b6040517f118cdaa700000000000000000000000000000000000000000000000000000000815260040161081791906109d6565b60405180910390fd5b565b600080823b905060008111915050919050565b60008060009054906101000a900473ffffffffffffffffffffffffffffffffffffffff169050816000806101000a81548173ffffffffffffffffffffffffffffffffffffffff021916908373ffffffffffffffffffffffffffffffffffffffff1602179055508173ffffffffffffffffffffffffffffffffffffffff168173ffffffffffffffffffffffffffffffffffffffff167f8be0079c531659141344cd1fd0a4f28419497f9722a3daafe3b4186f6b6457e060405160405180910390a35050565b600033905090565b600080fd5b600073ffffffffffffffffffffffffffffffffffffffff82169050919050565b600061093182610906565b9050919050565b61094181610926565b811461094c57600080fd5b50565b60008135905061095e81610938565b92915050565b60006020828403121561097a57610979610901565b5b60006109888482850161094f565b91505092915050565b60008115159050919050565b6109a681610991565b82525050565b60006020820190506109c1600083018461099d565b92915050565b6109d081610926565b82525050565b60006020820190506109eb60008301846109c7565b92915050565b600081519050919050565b600082825260208201905092915050565b6000819050602082019050919050565b610a2681610926565b82525050565b6000610a388383610a1d565b60208301905092915050565b6000602082019050919050565b6000610a5c826109f1565b610a6681856109fc565b9350610a7183610a0d565b8060005b83811015610aa2578151610a898882610a2c565b9750610a9483610a44565b925050600181019050610a75565b5085935050505092915050565b60006020820190508181036000830152610ac98184610a51565b905092915050565b600082825260208201905092915050565b7f4b657920616c7265616479206578697374730000000000000000000000000000600082015250565b6000610b18601283610ad1565b9150610b2382610ae2565b602082019050919050565b60006020820190508181036000830152610b4781610b0b565b9050919050565b7f4b65792063616e6e6f74206265206120636f6e74726163742061646472657373600082015250565b6000610b84602083610ad1565b9150610b8f82610b4e565b602082019050919050565b60006020820190508181036000830152610bb381610b77565b9050919050565b6000819050919050565b610bcd81610bba565b82525050565b6000602082019050610be86000830184610bc4565b92915050565b7f4b657920646f6573206e6f742065786973740000000000000000000000000000600082015250565b6000610c24601283610ad1565b9150610c2f82610bee565b602082019050919050565b60006020820190508181036000830152610c5381610c17565b9050919050565b7f4e487b7100000000000000000000000000000000000000000000000000000000600052603260045260246000fd5b7f4e487b7100000000000000000000000000000000000000000000000000000000600052601160045260246000fd5b6000610cc382610bba565b9150610cce83610bba565b9250828203905081811115610ce657610ce5610c89565b5b92915050565b7f4e487b7100000000000000000000000000000000000000000000000000000000600052603160045260246000fd5b6000610d2682610bba565b91507fffffffffffffffffffffffffffffffffffffffffffffffffffffffffffffffff8203610d5857610d57610c89565b5b60018201905091905056fea2646970667358221220b1e191a7c4a591f9e91b6849f2b825e339207c7f2a4b26c329b873eac379989d64736f6c63430008150033a2646970667358221220f4a032ecaab41683f519f8a6f6b202fee91c74fd52864d908d28d899b686582464736f6c63430008150033",
  "linkReferences": {},
  "deployedLinkReferences": {}
}