{
  "_format": "hh-sol-artifact-1",
  "contractName": "KeyPosterFactory",
  "sourceName": "contracts/KeyPosterFactory.sol",
  "abi": [
    {
      "anonymous": false,
      "inputs": [
        {
          "indexed": true,
          "internalType": "address",
          "name": "newKeyPoster",
          "type": "address"
        },
        {
          "indexed": true,
          "internalType": "address",
          "name": "owner",
          "type": "address"
        }
      ],
      "name": "KeyPosterCreated",
      "type": "event"
    },
    {
      "inputs": [],
      "name": "createKeyPoster",
      "outputs": [
        {
          "internalType": "address",
          "name": "",
          "type": "address"
        }
      ],
      "stateMutability": "nonpayable",
      "type": "function"
    }
  ],
  "bytecode": "0x608060405234801561001057600080fd5b50611365806100206000396000f3fe608060405234801561001057600080fd5b506004361061002b5760003560e01c8063c2081b0e14610030575b600080fd5b61003861004e565b6040516100459190610136565b60405180910390f35b6000803360405161005e906100e8565b6100689190610136565b604051809103906000f080158015610084573d6000803e3d6000fd5b5090503373ffffffffffffffffffffffffffffffffffffffff168173ffffffffffffffffffffffffffffffffffffffff167f972e42b4c6f883e96833b0d8c531addb94321bdd53fec98e14026279e75e26a960405160405180910390a38091505090565b6111de8061015283390190565b600073ffffffffffffffffffffffffffffffffffffffff82169050919050565b6000610120826100f5565b9050919050565b61013081610115565b82525050565b600060208201905061014b6000830184610127565b9291505056fe60806040523480156200001157600080fd5b50604051620011de380380620011de8339818101604052810190620000379190620001f4565b80600073ffffffffffffffffffffffffffffffffffffffff168173ffffffffffffffffffffffffffffffffffffffff1603620000ad5760006040517f1e4fbdf7000000000000000000000000000000000000000000000000000000008152600401620000a4919062000237565b60405180910390fd5b620000be81620000c660201b60201c565b505062000254565b60008060009054906101000a900473ffffffffffffffffffffffffffffffffffffffff169050816000806101000a81548173ffffffffffffffffffffffffffffffffffffffff021916908373ffffffffffffffffffffffffffffffffffffffff1602179055508173ffffffffffffffffffffffffffffffffffffffff168173ffffffffffffffffffffffffffffffffffffffff167f8be0079c531659141344cd1fd0a4f28419497f9722a3daafe3b4186f6b6457e060405160405180910390a35050565b600080fd5b600073ffffffffffffffffffffffffffffffffffffffff82169050919050565b6000620001bc826200018f565b9050919050565b620001ce81620001af565b8114620001da57600080fd5b50565b600081519050620001ee81620001c3565b92915050565b6000602082840312156200020d576200020c6200018a565b5b60006200021d84828501620001dd565b91505092915050565b6200023181620001af565b82525050565b60006020820190506200024e600083018462000226565b92915050565b610f7a80620002646000396000f3fe608060405234801561001057600080fd5b506004361061007d5760003560e01c8063715018a61161005b578063715018a6146100ea5780638da5cb5b146100f4578063bc87eed314610112578063f2fde38b146101305761007d565b806310813e7d146100825780635f7b68be146100b257806369e78499146100ce575b600080fd5b61009c60048036038101906100979190610ad8565b61014c565b6040516100a99190610b20565b60405180910390f35b6100cc60048036038101906100c79190610ad8565b6101a2565b005b6100e860048036038101906100e39190610ad8565b6103cf565b005b6100f261068e565b005b6100fc6106a2565b6040516101099190610b4a565b60405180910390f35b61011a6106cb565b6040516101279190610c6b565b60405180910390f35b61014a60048036038101906101459190610ad8565b610859565b005b6000600160008373ffffffffffffffffffffffffffffffffffffffff1673ffffffffffffffffffffffffffffffffffffffff16815260200190815260200160002060009054906101000a900460ff169050919050565b6101aa6108df565b600160008273ffffffffffffffffffffffffffffffffffffffff1673ffffffffffffffffffffffffffffffffffffffff16815260200190815260200160002060009054906101000a900460ff1615610237576040517f08c379a000000000000000000000000000000000000000000000000000000000815260040161022e90610cea565b60405180910390fd5b61024081610966565b15610280576040517f08c379a000000000000000000000000000000000000000000000000000000000815260040161027790610d56565b60405180910390fd5b60018060008373ffffffffffffffffffffffffffffffffffffffff1673ffffffffffffffffffffffffffffffffffffffff16815260200190815260200160002060006101000a81548160ff02191690831515021790555043600260008373ffffffffffffffffffffffffffffffffffffffff1673ffffffffffffffffffffffffffffffffffffffff168152602001908152602001600020819055506003819080600181540180825580915050600190039060005260206000200160009091909190916101000a81548173ffffffffffffffffffffffffffffffffffffffff021916908373ffffffffffffffffffffffffffffffffffffffff1602179055508073ffffffffffffffffffffffffffffffffffffffff167f7d958a859734aa5212d2568f8700fe77619bc93d5b08abf1445585bac8bff606436040516103c49190610d85565b60405180910390a250565b6103d76108df565b600160008273ffffffffffffffffffffffffffffffffffffffff1673ffffffffffffffffffffffffffffffffffffffff16815260200190815260200160002060009054906101000a900460ff16610463576040517f08c379a000000000000000000000000000000000000000000000000000000000815260040161045a90610dec565b60405180910390fd5b6000600160008373ffffffffffffffffffffffffffffffffffffffff1673ffffffffffffffffffffffffffffffffffffffff16815260200190815260200160002060006101000a81548160ff02191690831515021790555060005b600380549050811015610647578173ffffffffffffffffffffffffffffffffffffffff16600382815481106104f6576104f5610e0c565b5b9060005260206000200160009054906101000a900473ffffffffffffffffffffffffffffffffffffffff1673ffffffffffffffffffffffffffffffffffffffff160361063457600360016003805490506105509190610e6a565b8154811061056157610560610e0c565b5b9060005260206000200160009054906101000a900473ffffffffffffffffffffffffffffffffffffffff16600382815481106105a05761059f610e0c565b5b9060005260206000200160006101000a81548173ffffffffffffffffffffffffffffffffffffffff021916908373ffffffffffffffffffffffffffffffffffffffff16021790555060038054806105fa576105f9610e9e565b5b6001900381819060005260206000200160006101000a81549073ffffffffffffffffffffffffffffffffffffffff02191690559055610647565b808061063f90610ecd565b9150506104be565b508073ffffffffffffffffffffffffffffffffffffffff167fd2b2d9609b634ccc6f93482de9f8431ec6222fed4fa3cfca3b2a7e1a96a924ae60405160405180910390a250565b6106966108df565b6106a06000610979565b565b60008060009054906101000a900473ffffffffffffffffffffffffffffffffffffffff16905090565b6060600060038054905067ffffffffffffffff8111156106ee576106ed610f15565b5b60405190808252806020026020018201604052801561072757816020015b610714610a45565b81526020019060019003908161070c5790505b50905060005b6003805490508110156108515760405180604001604052806003838154811061075957610758610e0c565b5b9060005260206000200160009054906101000a900473ffffffffffffffffffffffffffffffffffffffff1673ffffffffffffffffffffffffffffffffffffffff16815260200160026000600385815481106107b7576107b6610e0c565b5b9060005260206000200160009054906101000a900473ffffffffffffffffffffffffffffffffffffffff1673ffffffffffffffffffffffffffffffffffffffff1673ffffffffffffffffffffffffffffffffffffffff1681526020019081526020016000205481525082828151811061083357610832610e0c565b5b6020026020010181905250808061084990610ecd565b91505061072d565b508091505090565b6108616108df565b600073ffffffffffffffffffffffffffffffffffffffff168173ffffffffffffffffffffffffffffffffffffffff16036108d35760006040517f1e4fbdf70000000000000000000000000000000000000000000000000000000081526004016108ca9190610b4a565b60405180910390fd5b6108dc81610979565b50565b6108e7610a3d565b73ffffffffffffffffffffffffffffffffffffffff166109056106a2565b73ffffffffffffffffffffffffffffffffffffffff161461096457610928610a3d565b6040517f118cdaa700000000000000000000000000000000000000000000000000000000815260040161095b9190610b4a565b60405180910390fd5b565b600080823b905060008111915050919050565b60008060009054906101000a900473ffffffffffffffffffffffffffffffffffffffff169050816000806101000a81548173ffffffffffffffffffffffffffffffffffffffff021916908373ffffffffffffffffffffffffffffffffffffffff1602179055508173ffffffffffffffffffffffffffffffffffffffff168173ffffffffffffffffffffffffffffffffffffffff167f8be0079c531659141344cd1fd0a4f28419497f9722a3daafe3b4186f6b6457e060405160405180910390a35050565b600033905090565b6040518060400160405280600073ffffffffffffffffffffffffffffffffffffffff168152602001600081525090565b600080fd5b600073ffffffffffffffffffffffffffffffffffffffff82169050919050565b6000610aa582610a7a565b9050919050565b610ab581610a9a565b8114610ac057600080fd5b50565b600081359050610ad281610aac565b92915050565b600060208284031215610aee57610aed610a75565b5b6000610afc84828501610ac3565b91505092915050565b60008115159050919050565b610b1a81610b05565b82525050565b6000602082019050610b356000830184610b11565b92915050565b610b4481610a9a565b82525050565b6000602082019050610b5f6000830184610b3b565b92915050565b600081519050919050565b600082825260208201905092915050565b6000819050602082019050919050565b610b9a81610a9a565b82525050565b6000819050919050565b610bb381610ba0565b82525050565b604082016000820151610bcf6000850182610b91565b506020820151610be26020850182610baa565b50505050565b6000610bf48383610bb9565b60408301905092915050565b6000602082019050919050565b6000610c1882610b65565b610c228185610b70565b9350610c2d83610b81565b8060005b83811015610c5e578151610c458882610be8565b9750610c5083610c00565b925050600181019050610c31565b5085935050505092915050565b60006020820190508181036000830152610c858184610c0d565b905092915050565b600082825260208201905092915050565b7f4b657920616c7265616479206578697374730000000000000000000000000000600082015250565b6000610cd4601283610c8d565b9150610cdf82610c9e565b602082019050919050565b60006020820190508181036000830152610d0381610cc7565b9050919050565b7f4b65792063616e6e6f74206265206120636f6e74726163742061646472657373600082015250565b6000610d40602083610c8d565b9150610d4b82610d0a565b602082019050919050565b60006020820190508181036000830152610d6f81610d33565b9050919050565b610d7f81610ba0565b82525050565b6000602082019050610d9a6000830184610d76565b92915050565b7f4b657920646f6573206e6f742065786973740000000000000000000000000000600082015250565b6000610dd6601283610c8d565b9150610de182610da0565b602082019050919050565b60006020820190508181036000830152610e0581610dc9565b9050919050565b7f4e487b7100000000000000000000000000000000000000000000000000000000600052603260045260246000fd5b7f4e487b7100000000000000000000000000000000000000000000000000000000600052601160045260246000fd5b6000610e7582610ba0565b9150610e8083610ba0565b9250828203905081811115610e9857610e97610e3b565b5b92915050565b7f4e487b7100000000000000000000000000000000000000000000000000000000600052603160045260246000fd5b6000610ed882610ba0565b91507fffffffffffffffffffffffffffffffffffffffffffffffffffffffffffffffff8203610f0a57610f09610e3b565b5b600182019050919050565b7f4e487b7100000000000000000000000000000000000000000000000000000000600052604160045260246000fdfea26469706673582212201dfd0166f7b7f22d9cdb5a946e51d9b65872bc771ba1675d2a0fe4d3393e922964736f6c63430008150033a2646970667358221220a65cf1d29fee1bd8a05f936ce446e8b6538ba6aa5a72c6e7af18b3d8342d10d064736f6c63430008150033",
  "linkReferences": {},
  "deployedLinkReferences": {}
}